:020000040800F2
:10000000FC9701209D620008E5620008E562000897
:10001000E5620008E5620008E562000800000000F3
:10002000000000000000000000000000E562000881
:10003000E562000800000000E56200086D1D000890
:10004000E5620008E5620008E5620008E562000874
:10005000E5620008E5620008E5620008E562000864
:10006000E5620008E5620008E5620008D1160008B4
:10007000E5620008E5620008E5620008E562000844
:10008000E5620008E5620008E5620008E562000834
:10009000E5620008E5620008E5620008E562000824
:1000A000E5620008E5620008E5620008E562000814
:1000B000E5620008E5620008E5620008E562000804
:1000C000E5620008E5620008E5620008E5620008F4
:1000D000E5620008E5620008E5620008E5620008E4
:1000E000E5620008E5620008E56200080000000023
:1000F000E5620008E5620008000000000000000062
:10010000000000000000000000000000E5620008A0
:10011000E5620008E562000875170008E56200085E
:10012000D11C0008E5620008E5620008E5620008ED
:10013000E562000800000000000000000000000070
:1001400000000000000000000000000095190008F9
:10015000E5620008E562000800000000E5620008B2
:10016000E5620008E5620008E5620008E562000853
:10017000E56200089B190008000000000000000074
:1001800000000000E5620008E5620008E562000882
:1001900000000000E5620008000000000000000010
:1001A000000000000000000000000000000000004F
:1001B000E562000800000000E562000800000000A1
:1001C000000000000000000000000000000000002F
:1001D000000000000000000000000000E5620008D0
:1001E000034613F8012B002AFBD1181A0138704777
:1001F00053B94AB9002908BF00281CBF4FF0FF318E
:100200004FF0FF3000F00CB8ADF1080C6DE904CEF2
:1002100006F036FEDDF804E0DDE9022304B07047A5
:10022000704700BF0348044B834202D0034B03B125
:1002300018477047480600204806002000000000CC
:100240000548064B1B1AD90F01EBA301491002D038
:10025000034B03B1184770474806002048060020AA
:100260000000000010B5064C237843B9FFF7DAFF11
:10027000044B13B10448AFF300800123237010BD79
:1002800048060020000000007871000808B5054B02
:100290001BB105490548AFF30080BDE80840FFF7F2
:1002A000CFBF00BF000000004C060020787100089E
:1002B00030B599B103890F2B10D86FF0080500F104
:1002C00009022D1AAC18A34204D8C2180133917246
:1002D000038103E012F8014F8C42F3D130BD0000DE
:1002E00070B5194B196891F8963040F2F75202FB3D
:1002F00003110020154B0246FF2591F8CA42013C2C
:10030000042C08D8DFE804F0030F15171B005A70FF
:100310001A70DA709A700130202801F10C0103F193
:100320001C03EAD170BD1A705A709A70DA701A7193
:10033000F1E71A60FBE71A601A715A71EBE71A606D
:100340009A809D711A81E6E7140B00206C0600204C
:10035000F8B56FF0080704460E4600F109053F1A8C
:1003600022897B199A4206D8FF220023A2712360BA
:10037000A3802381F8BD15F8011F304601F026FF48
:10038000EEE770B502890446002309309A4210D97D
:1003900010F8016F8E4203F101050BD104F10A0040
:1003A000013AD21A4119184405F025FF2389013B6F
:1003B000238170BD2B46E9E713062DE9F04705467A
:1003C0000F46164603D5FF238371BDE8F087DFF89B
:1003D0009080D8F8004094F89690827140F2F75AD5
:1003E00001F0BEFCEA360AFB09F909EB86094C4428
:1003F000286094F8A13003F00703022B0FD0032BE1
:1004000021D0012BE1D194F8A010384601F072FE02
:1004100094F8A0102846BDE8F047FFF749BF94F8CC
:10042000A010384601F066FE94F8A0102846FFF7A9
:100430003FFFD8F8003093F896200AFB023393F878
:100440009636AB80C1E794F8A010384601F0BEFEA6
:1004500094F8A0102846BDE8F047FFF792BF00BF10
:10046000140B0020FFF73CBF2DE9F8431B4D1C4E39
:100470000024A9460C2740F2F758336893F89620D9
:1004800008FB02F207FB0422134493F8CA22042A51
:1004900015D0052A1CD0032A08D12A79022A05D1B1
:1004A00093F8CC1293F8C90201F090FE0134202C8D
:1004B00005F11C05E1D1BDE8F843FFF711BF1C228F
:1004C00002FB04929288002AF0D093F8CB12E9E75D
:1004D00093F8C9122846FFF73BFFE7E76C060020B8
:1004E000140B00202DE9F04FC4781F2C85B0054671
:1004F0007FD8BC4B1F6897F8966040F2F7530C21E9
:1005000003FB06F201FB04223A4492F8CA8208F186
:10051000FF32042A6DD8DFE812F00500F5008901EA
:10052000D3011102734301FB04333B4495F801B03E
:1005300093F8C9A2297893F8CB22DFF8AC828DF822
:1005400008A0BAEB0B0918BF4FF0010901298DF87B
:1005500009204FF01C034FD0042953D01C2303FB68
:1005600004839978DB78003918BF0121003B18BF5C
:1005700001238DF80C108DF80D30E1B1DBB140F2A4
:10058000F7530C21734301FB04333B4493F8CD1222
:10059000002954D0954B0A2000FB0A3C00FB023393
:1005A0009CF806209B79934228BF1346994246D86F
:1005B00001238DF80C301C2303AF03FB048402AD30
:1005C000002614F8013B17F8012B012B00F08E8058
:1005D000002A00F08B806178287801F08BFD0123E0
:1005E00004F8013C731C022B05F101054FF00106D4
:1005F000E7D105B0BDE8F08F03FB0483A9784B4435
:100600009970ABE703FB048303EB090113F80900BE
:1006100078B1CDE9002309F110030DEB03008978CF
:1006200010F8080C01F0D2FD019B009A002103F89C
:1006300009101C2303FB04834B440021E0E740F234
:10064000F7530C22734302FB04333B4493F8CC2250
:10065000042A1FD109F110020DEB0209634B19F8AE
:10066000082C0A2101FB0232907904AADA4508BF5E
:10067000013212F8085C01FB05339B7998422CBFCC
:100680000123002309F8043C34BF0123002302F8AE
:10069000043C90E72B78012B21D1D11E02F1FF35CC
:1006A00018BF0121961E6B426B4170427041DA45C2
:1006B00018BF0346002A08BF43F0010309F11002E6
:1006C0000DEB02090B4004AA09F8043CDA4508BF07
:1006D000013283F00103194002F8041C6BE71C236C
:1006E000634338F80330ADF80C3064E7012A3FF477
:1006F00079AF002B3FF476AF6178287801F066FD82
:1007000000236DE76878394BDFF8DC900A2202FBA2
:1007100000330C219A7940F2F753734301FB043301
:100720003B441C2101FB049193F8D3E20B79724501
:1007300034BF4FF0000C4FF0010C012B5AD0BCF12C
:10074000000F57D001230B71B8F1040118BF01212C
:1007500002F01AF840F2F7535E4308F1FF380C2319
:1007600006F2CA2603FB04660FFA88F81C2303FB73
:1007700004944FEA48083E444FF0000916F801AFD0
:10078000BAF1000F26D0337943FA08F313F00307C8
:100790005FFA83FB1ED023782BB16878514601F0B5
:1007A00015FD002323701BF0010F13D010486B7848
:1007B0004370012F14BF032201220021C170027077
:1007C00080F802A000F004FD012F14BF002000F00B
:1007D0000100207009F10109B9F1040F04F10104CD
:1007E000CCD106E7140B00206C060020D437002083
:1007F0006806002095F80080B8F1040F0CBF0023B4
:1008000003F001034BB1724507D21C2303FB049391
:100810004FF0030883F804C096E71C2303FB0493FE
:1008200083F804C0B8F1000F8ED1E2E695F800809D
:10083000B8F1010F2BD0B8F1040F7FF4DAAEDFF876
:1008400048811C2303FB04831B79012B29D140F22F
:10085000F7535E430C2303FB04664C486A784270EE
:100860003E44002196F8CB32C170022101708370A2
:1008700000F0AEFC20B196F8CB12687801F03AFC9B
:100880001C2303FB0488002388F80430B1E601F040
:1008900067FA3D4A1C236343D118D05081F8048085
:1008A000A7E6022BECD140F2F75373430C2202FB74
:1008B00004333B44687893F8CC1201F087FCDFE7FF
:1008C00095F800806878B8F1010F1AD0B8F1040FDC
:1008D0007FF48FAE2C4D1C2303FB04535B7953B97B
:1008E00040F2F75373430C2202FB04333B4493F86A
:1008F000CB1201F06BFC1C2303FB045500232B716E
:1009000077E640F2F75373430C2202FB04331E4E8A
:100910001C253B446543741993F8CB1201F0EAFBA4
:10092000637983F0010363712BB101F019FA84F844
:10093000048070515DE6022323715AE6124B1C229B
:1009400002FB04382B78012B09D0042B7FF451AE25
:100950006978404605B0BDE8F04FFFF7F9BC69780B
:100960004046FFF7F5FC40F2F7535E430C2303FBD0
:1009700004663744697897F8CB22404605B0BDE855
:10098000F04FFFF719BD00BF6C0600206406002081
:100990002DE9F74F484C009000274FF00C0940F22A
:1009A000F75A464B1D6895F896600AFB06FB09FB53
:1009B00007B305EB030898F8CA12042930D00529BB
:1009C0003ED0032914D12279012A11D198F8CF32CF
:1009D000B3B1009BA3B10AFB06F609FB07662E44E0
:1009E00096F8CC1296F8C90201F084FB0223237119
:1009F0000137202F04F11C04D3D103B0BDE8F08FE0
:100A0000D4F8008001F0ACF90AFB06F309FB0733C8
:100A10002B44A0EB0800B3F8CD328342DBD9E7E7E3
:100A20002279012AE4D1256801F09AF9B8F8CC328C
:100A3000401B8342DCD80223237100236371D7E774
:100A400094F90610A6790029D2DB21680191EA36D3
:100A500001F086F90BEB860201991544401A95F8CE
:100A6000A21095F8A120490141EAD20102F0070243
:100A7000022A0DD002F00502012AB9D18142B7D86D
:100A800095F8A32098F8C9122046FFF795FCAFE728
:100A9000A288002AF2D0013A92B2A280002AA7D1FD
:100AA00095F8A01098F8C90201F090FB95F8A010F5
:100AB0002046FFF766FC9BE76C060020140B002025
:100AC000044A00231370044A1370044A13805360CD
:100AD000704700BF810A0020800A0020EC09002036
:100AE000402910B5034614D10B4A117801F0FF00DC
:100AF00079B90A49097859B91846094B00F14001FA
:100B000050F8044B43F8044B8842F9D1012010708F
:100B100010BD0020FCE700BF810A0020800A0020F1
:100B2000400A00202DE9F04FDFF89CA29AF800302F
:100B3000A7B0002B40D0A54C2378112B18D983F0F7
:100B400080020D2A01D9FF232EE0813B0C2B00F2FD
:100B5000CB80DFE813F04B016A0184019F01BA01E9
:100B6000BD02D902E502F8020F03260333024A024E
:100B7000013B102B12D8DFE813F0320035003800AB
:100B80004400480061006900700077007F00830026
:100B90009C00D300E900F200090115018C4B0922E9
:100BA0005A7001229A702378894A137000238AF8B8
:100BB0000030884B01221A70864C237863B10220E2
:100BC00003F040F840B1824A40230021022003F0A4
:100BD00055F808B10023237027B0BDE8F08F00F06E
:100BE000A9FEE0E700F0AAFEDDE7FFF73DFC00F01C
:100BF000C3FB054601F016FA01F0E8FF002DD2D143
:100C0000A1E7012001F07CFCCDE76278442A9AD864
:100C1000714B72480A2101FB0233C2F145020021E7
:100C20001D88058001319D798570152903F10A031E
:100C300000F10300B7D09142F2D1B4E7684B1B68D2
:100C4000D3F80620624BC3F80120ACE765490422C3
:100C5000062002F0F7FC0546D0E7614B1B6893F8CD
:100C600096205B4B5A709EE75D4B1B68B3F894204F
:100C7000574BA3F8012096E75A4902229420E8E74F
:100C80006378032B3FF65FAF554E326892F896209B
:100C90009A4201D1FFF7E8FB607800F0FDFB336872
:100CA000627893F896309A420546A7D101F0BAF9D6
:100CB000A4E76278A3781343032B3FF644AF484E72
:100CC000336893F89630934201D1FFF7CDFBA378B8
:100CD0006078316840F2F7525343A03350431944CF
:100CE000A03002F0AFFCDAE7607803283FF62BAFC4
:100CF000A378032B3FF627AFE17844293FF623AFD3
:100D000045256B4340F2F75505FB0033A033C1F195
:100D100045020B44324909683F2A28BF3F229BE025
:100D2000D4F8013040F2564293423FF60CAFC3F57F
:100D30008A62073226482C49C0F801203B2A28BF86
:100D40003B221944053005F09BFA2CE720220021B4
:100D5000224805F069FA214800F0FAFD23E71E4A0F
:100D600003A8002193885588AB4228BF5B1B01F183
:100D700001012CBF9BB20023452920F8023B02F160
:100D80000A02EFD18A2203A90A2062E7144B104A13
:100D90001968D1F89830C2F80130D1F89C30C2F807
:100DA000053000E70F4801F001FF00283FF4CBAE0B
:100DB0000C490822982002F045FC00283FF4C3AEFD
:100DC00001F004FFEFE600BF810A0020400A002086
:100DD000000A0020800A0020D4370020010A0020E9
:100DE000140B0020410A0020927100086178032949
:100DF0003FF6A9AEA07803283FF6A5AEE378442BD2
:100E00003FF6A1AE22793B2A3FF69DAEC3F14505E0
:100E1000AA423FF798AE40F2F755A03305FB0133E5
:100E2000B249452505FB003013E76378032B3FF6F5
:100E30008AAEA17844293FF686AE40F2F75043438C
:100E400003F5DA73C1F1450203EB8103A8490F2AC8
:100E500028BF0F2209689200A648194473E76378F7
:100E6000032B3FF670AEA07844283FF66CAEE278D4
:100E70000F2A3FF668AEC0F145018A423FF763AEE4
:100E800040F2F751800001FB030092009A4900F5FF
:100E9000DA70DEE66378032B3FF655AE6188B1F574
:100EA000C07FBFF450AEC1F5C07294483E2A40F2F4
:100EB000F75528BF3E2205FB0311427001F5327140
:100EC0008B4B1B68023019443DE7617803293FF6DC
:100ED0003AAE638822799818B0F5C07F3BDC013ABE
:100EE0003A2A38D80C20B3FBF0F200FB1232844DC2
:100EF0005ABB01222A7069706B606B788B422AD1D1
:100F0000DFF8ECB100262779B7427FF64CAE68686F
:100F100076494FF00C09B0FBF9F309FB1300A9EB7C
:100F20000003BF1BBB4298460193764B28BFB846CF
:100F300018444246314405F0A3F9019BBB420FD946
:100F40006B6843446B604644DDE72A78012A02D18E
:100F50006A689342D1D06A4B00221A805A60F2E547
:100F60002B78012BF7D16F78032FF4D86B68B3FB84
:100F7000F9F35FFA83F9B9F11F0FECD8DBF8003011
:100F800093F89630BB4201D1FFF76EFA40F2F7506A
:100F900078430C2200F5327002FB0900594902F037
:100FA00051FBDBF8003093F89630BB42814601D10B
:100FB00001F038F8B9F1000FC2D1CCE76378032B08
:100FC0003FF6C1AD6188B1F5007FBFF4BCADC1F59E
:100FD00000724A483E2A40F2F75528BF3E2205FBE0
:100FE0000311427001F589616AE7617803293FF6D0
:100FF000AAAD638822799818B0F5007FABDC013A7E
:101000003A2AA8D813F0030F3D4D28D102222A70A6
:1010100069706B606B788B429DD1DFF8E890DFF8E8
:10102000D0B000262779B7427FF6BDAD68682F495A
:1010300000F00300C0F10403BF1BBB42984628BF69
:10104000B846424631444844019305F019F9019BE2
:10105000BB420DD96B6843446B604644E2E72A7893
:10106000022A7FF478AF6A6893427FF474AFD1E7C5
:101070002B78022B7FF46FAF6F78032F3FF66BAFA7
:101080006B6898089B053FF566AFDBF8003093F876
:101090009630BB4203D10190FFF7E6F9019840F288
:1010A000F7537B4303F58963C0B203EB800004224E
:1010B000494602F0C7FADBF8003093F89630BB429D
:1010C00003D1019000F0AEFF01980028C2D142E7A1
:1010D0006278032A3FF637AD054B1B6840F2F751A3
:1010E00001FB023393F89626BBE500BF450A0020BA
:1010F000140B0020010A0020440A0020000A0020EE
:10110000EC090020F4090020607803283FF61BADAD
:1011100040F2F75358432949012200F2966098E5BE
:101120006378032B3FF60FADA17844293FF60BAD52
:1011300040F2F750C1F1450200FB0311204B01F5CD
:10114000C9611B68E8E5607803283FF6FCACA3782A
:10115000442B3FF6F8ACE2783C2A3FF6F4ACC3F1FE
:1011600045018A423FF7EFAC164903F5C96340F2E7
:10117000F75557E6617803293FF6E5AC104B124A64
:101180001B6840F2F75000FB0133D3F88D16C2F80C
:101190000110D3F8911693F89536C2F805105372E2
:1011A00001E5607803283FF6CEAC40F2F753584390
:1011B0000249092200F28D604BE500BF420A00207F
:1011C000140B0020440A0020000A00207047000091
:1011D00030B5124C01462078F0B9114D2A68102A1A
:1011E00019D0104B09681B6820701344013203F0BA
:1011F0000F032A600C4A42F8231002EB83050B4BC5
:101200001B6893F8962040F2F75101FB023301204E
:1012100093F89636EB7030BD0020FCE7100B0020F1
:10122000080B00200C0B0020C60A0020140B002025
:101230002DE9F047324C2378002B38D1314F3868F4
:10124000A8B301222270304ADFF8C0C01268DCF86F
:10125000001092F89650DFF8B8E0DFF8B89040F24E
:10126000F75606FB05221E4692F8968601EB030A06
:101270000AF00F0A0EEB8A05EA78424528BF42467B
:10128000EA70B2B1013AEA7001339842EED100251A
:101290003144801B01F00F01386025701E4F1D4C3A
:1012A000CCF80010A8464FF00209AE4207D1BDE8C5
:1012B000F0875EF82A2049F826200136E4E72378F3
:1012C000022B08D0032B0DD0012B08D1A178607818
:1012D00000F010FF03E0A178607800F077FF01359F
:1012E0000434E2E76278A3780B4887F8038087F834
:1012F00000907A70BB70FFF76BFF0028EFD0E5E736
:10130000100B0020080B0020140B00200C0B0020F9
:10131000C60A0020860A0020820A002014494FF4E1
:101320008A72F8B502FB00110446124804F0A8FFC7
:10133000104A002317461846FF2503F1EA0107EB80
:10134000810101330026802B82F8A8034E7088703B
:1013500002F1040282F8A753EFD140F2F75202FBE8
:1013600004F00449BDE8F840A03002F06BB900BFBA
:10137000E97500080000002030B5A5B08A220021E0
:1013800001A804F051FF284B009304226946002075
:1013900002F058F94FF48373044602226946042090
:1013A000ADF8003002F04EF9204904400422062036
:1013B00002F048F9E4B204408A2201A90A2002F0AE
:1013C00041F91B4900EA04050222942002F03AF98F
:1013D000002405400122694696208DF8004002F065
:1013E00031F901220540694697208DF8002002F06E
:1013F00029F9104905400822982002F023F90540F8
:10140000E0B2FFF78BFF0134042C05EA0005F7D1A9
:10141000094B00932246694641F67C0002F012F91E
:101420002840C0B225B030BD4C49420AF705002023
:10143000FB050020397A0008484D4B0A114A08B5CF
:101440008021002302F823100133452BFAD10E4BE3
:101450000E4A196813600E4A91420AD103F5805270
:10146000D2F87C180B4A914203D19B88B3F5837F55
:1014700006D001F015FB18B9BDE80840FFF77CBFA6
:1014800008BD00BF14010020AC3C0020140B00205C
:101490004C49420A484D4B0A032801D8FFF73EBF8A
:1014A000002070477F288CBF00200120C0027047B9
:1014B0002DE9F84F6B486C4F6C4DDFF8B48101217A
:1014C00005F079F96B48012105F075F901214FF418
:1014D000401005F070F96848012105F06CF9674883
:1014E000012105F068F90121654805F064F906203D
:1014F00004F0ECFF634804F0B3FF634804F0C9FF55
:10150000614A604800235370937001240A231146F6
:101510001470D37004F0C4FF17F8016B5948E2B29D
:101520000123314604F0F1FF504805F00EFC03237F
:10153000AB7138F816302B60544B4C4953F82600E9
:10154000013405F0C5FB0B2CE6D10024DFF84091F7
:10155000DFF84081A34640F2011A444805F0F5FB4C
:1015600058F8046B39F8027B40492F60304685F803
:1015700005B0A5F806A0013405F0AAFB0122394602
:10158000304605F0E9FB032CE7D1012207213D4855
:1015900005F062F8404805F097FA404805F0EAFA8D
:1015A0003E4A3F4B53603F4B13603F4B4FF420206C
:1015B000C2E90203114640F201233748138205F0C5
:1015C000E0FA3A48012105F010FB3948052105F001
:1015D00013FB01223048022105F09EFA294801211F
:1015E00004F07CFF0022334841F2DF0105F007FCE4
:1015F0003048002105F00AFC012211462D4805F073
:1016000018FC00221146122005F0ACFB0022114606
:101610000B2005F0A7FB00221146362005F0A2FBA7
:101620001848012104F030FF164804F05CFF15480B
:1016300004F05EFF0128FAD0124804F05DFF114863
:1016400004F05FFF0128FAD01348012105F06CFA7D
:101650000C48012105F009F8174A1378002BFCD03B
:10166000BDE8F88F08004400F47A0008C00B0020A1
:10167000FE7A000816003000010030000200300041
:101680000400400000200140DC0B0020207B00080B
:10169000E27A0008E87A000808600240C80B0020DF
:1016A000A80B00204C200140000101010060024015
:1016B0000461024000100040BC0B00207047000095
:1016C000024B33F8100080B2704700BF1A0B0020A5
:1016D000F8B5022005F03EFA01283CD11E4C1F4E01
:1016E0001F4F022005F038FA22781E49142303FB0D
:1016F0000211002331F8020B28B136F813500138DB
:10170000ADB227F8105001330A2BF3D1164901323C
:101710000B7802F00700002808BF43F001030B70AC
:10172000207002F001021148022105F015FB227819
:101730000E48C2F34002042105F00EFB22780B484C
:101740000821C2F3800205F007FBBDE8F840084815
:10175000012105F04FBBF8BD180B0020A80B00209D
:101760001A0B0020427A0008BC0B0020000802403F
:101770000010004010B50B48012105F066FB012860
:1017800004460DD10146074805F069FB05480021D4
:1017900005F030FB21460448BDE8104004F065BF69
:1017A00010BD00BF0010004000200140BFF34F8F6C
:1017B0000549064BCA6802F4E0621343CB60BFF3ED
:1017C0004F8F00BFFDE700BF00ED00E00400FA0509
:1017D0004A4A4B4B1168994210B51FD10023136040
:1017E000484AD2F80014D2F804044FF0E022136102
:1017F00053619361444B4FF0FF32C3F88020C3F82C
:101800008420C3F88820C3F88C20404AC3F8082CF1
:1018100081F3088881F309888047FEE7032005F0FB
:10182000D7FA04F043FF3A4B3A484FF4AB721A60D0
:10183000012104F0C0FF384A1369012143F003037A
:101840001361084604F0CCFF04F0A5FF0028FBD08C
:10185000012248211046022305F0EAF8052005F090
:1018600007F90121022004F0BBFF192004F084FFD6
:1018700001280446F9D1002004F0D8FF002004F02C
:10188000F1FF042004F0E6FF204604F0F3FF0220FD
:1018900005F0FEF805F010F90228FBD1002004F055
:1018A000E9FF04F085FD1D48012104F084FF1C4878
:1018B000012104F080FF012005F0E2F81A2004F075
:1018C0005BFF0128FAD1002005F0A2F8154A936BBE
:1018D00043F4001393630C4B134A002183F84D1318
:1018E000D2F8FC3043F08073C2F8FC300F4B1A681A
:1018F00042F001021A60596010BD00BFFC97012040
:10190000EFBEADDE00A0FF1F00E100E000A4FF1F5E
:10191000003C02401C00400000700040010030000C
:101920001D0030000000044000ED00E0001000E069
:1019300072B6FEE708B5FFF739FF000008B5024BA5
:10194000024A1A60FFF732FFFC970120EFBEADDEBE
:1019500010B50021441C01F10052A2F618021378C0
:101960009F2B13784FEA131394BF3033373300F8AB
:101970001130137803F00F03092B137803F00F03D2
:1019800094BF3033373304F8113001310C29E2D1E0
:10199000182010BD002003F0D9BE012003F0D6BEF0
:1019A000014805F05FBA00BF00000440014805F09F
:1019B00060BA00BF000004400148012104F0FBBEF2
:1019C0000C00300073B5002316460C460546019303
:1019D00004F050FE304604F055FEA108284604F0FD
:1019E00057FE14F003020BD024F00301294401A890
:1019F00004F046FC019802B0BDE8704004F042BE1D
:101A000002B070BD70477F2810B5044609D805F0B4
:101A100023F94FF0804005F00FF9042804D105F0B8
:101A200027F90024204610BD142005F0EBF804F53A
:101A30008030C00205F024F9C31E5C425C4105F011
:101A400017F9EFE7034610B503EB8204B4F5802FD6
:101A500008464FEA820106D80A4603F1006104F005
:101A60000FFC012010BD0020FCE7F8B500EB82035D
:101A7000B3F5802F04460F46154615D805F0ECF84F
:101A800004F100640026AE4203D105F0F1F8012014
:101A90000BE0204657F8261005F008F9032804F15A
:101AA000040403D005F0E4F80020F8BD0136EAE7AD
:101AB00030B52D482D4D2E4C89B0012104F07BFE10
:101AC0002C48012104F077FE01214FF4800004F03E
:101AD00072FE01A805F039F940F201232B80019331
:101AE00001A9254B0293204605F0F2F82B88A3624A
:101AF000002255214FF0804005F081F900214FF080
:101B0000804005F083F901224FF480714FF080404E
:101B100005F083F9194804F0D7FF03A805F02AF867
:101B2000174B0493174B03931749184B1348CDE9F0
:101B300005134FF4807303A9ADF81C3005F021F8AC
:101B400001220E480A2104F0E7FF1148012105F0A7
:101B50004CF810483C2105F04FF8002203213820B2
:101B600005F000F909B030BD02003000AE350020AC
:101B70000008024018003000000001010864024023
:101B8000E00B0020180802401000730A0001020256
:101B900000640240046502402DE9F84F454F3B7850
:101BA00003F0FF02002BFAD1B1F80080B1F802E097
:101BB000DFF804A14FF0480942452CBF002401245E
:101BC00044F4007309FB02FC724538BF1C46002137
:101BD0002BE08378EB4003F00103724512D2012918
:101BE0002ED0022906D090F867B005E00378F1E71F
:101BF0000023F2E790F868B02BFA05FB0BF0010B1D
:101C000043EA4B2324EA030B4FEA0B4B1B04013D31
:101C10003460C6F804B0B36006F10C0608D2013196
:101C2000C9B203290CF1180C0DD00AEB8C0607255C
:101C30004245DDD20129D9D00229CAD04378C9E76B
:101C400090F866B0D8E70132222A00F10300B3D140
:101C50004FF463720021194804F0E6FA184B1A8811
:101C6000184B00219A624FF0804005F0C3F8002124
:101C7000154804F059FF154804F06EFF124840F66D
:101C8000732104F047FF00214FF0804005F0C3F8B6
:101C9000012401214FF0804005F0E1F821460A4877
:101CA0003C7004F041FF21464FF08040BDE8F84F02
:101CB00005F0A0B8AC350020E00B00202032002059
:101CC000AE35002000080240086402400100001008
:101CD00008B50F4804F03EFF012813D100214FF052
:101CE000804005F087F80B48002104F01DFF0A48EA
:101CF00004F032FF094B1A88094B9A62094B002203
:101D00001A7008BD084804F025FF0128F9D1E5E75D
:101D1000020000100864024001000010AE350020EF
:101D200000080240AC350020080000100A4B4FF4B8
:101D30007A721B68B3FBF2F3013BB3F1807F0AD2E6
:101D40004FF0E022F0215361044B83F8231000236D
:101D500093610723136170474406002000ED00E003
:101D6000014B1868704700BFB0350020024A136865
:101D700001331360704700BFB03500202DE9F74FE5
:101D8000214B224F224ADFF88C801E8815883B8821
:101D9000B8F800B0DFF88090DFF880A00446032C8C
:101DA00002D903B0BDE8F08F022C0BD0032C15D064
:101DB000012C26D15D4524D0154AA8F800500223F5
:101DC000214605E09E421CD00F4A3E802346214614
:101DD000012003B0BDE8F04F01F050BF0E490F489D
:101DE0000193052204F0F7F9019B50B1D9F80030B6
:101DF000CAF8003099F804308AF80430064A0523FE
:101E0000DEE70134E4B2CAE7E0350020BA3500204D
:101E1000E2350020BC350020DA350020B435002042
:101E20007047000038B5214B33F810403CB185288D
:101E30000BD8822835D87A2802D801280DD838BD89
:101E40001B4A137823431370F9E79A282CD965307D
:101E5000C0B20428F3D8174AF3E7174D17492B7877
:101E60000022934217D8062B05D115490522481E9A
:101E700004F0C1F905235A1C2A700D4A13449C70C2
:101E80000B4A02EBD4020123117A04F00704A340A9
:101E90000B431372D3E711F8010FA042F0D00132C7
:101EA000DFE7084B1C80CAE7074BFBE7607B0008B5
:101EB000E4350020DA35002000360020E53500202A
:101EC000E7350020E2350020E0350020234B70B5D7
:101ED00033F810403CB185280CD8822835D87A28B0
:101EE00002D801280ED870BD1D4A137823EA0403D6
:101EF0001370F8E79A282FD96530C0B20428F2D8B9
:101F0000184AF2E7184E194A357800239D420DD938
:101F100012F8010FA04203F1010114D11448013D50
:101F20000144EA1A184404F066F935700C4B03EBCF
:101F3000D403012204F0070402FA04F41A7A22EA14
:101F400004021A72CFE70B46E0E70A4B1A88A24256
:101F5000C9D100221A80C6E7074BF7E7607B00086B
:101F6000E4350020DA35002000360020E535002079
:101F7000E6350020E2350020E035002008B502F00B
:101F8000DDF808B102F0E2F8002001F05BFE014646
:101F9000F8B1154915481C2204F01DF978B1124B0F
:101FA000124A03F11C0153F8040B42F8040B8B4254
:101FB000F9D100210C4A1C23084601F05FFE0120E4
:101FC00001F040FE014648B1BDE808400120FFF79E
:101FD000D5BE4FF0FF3002F06BFBD5E74FF0FF307E
:101FE00002F066FBEBE700BFE4350020BE350020C1
:101FF0000020704710B402280C46BDF8041006D12A
:102000002CB9022A03D110BC1846FEF769BD10BCDA
:102010007047012804D108780130C0B2FFF7AEBE86
:10202000704700002DE9F041FEF71CFA4FF48A7268
:102030001948194E002104F0F7F8184B18680022CF
:102040000C2440F2F755452790F896306B4304FB7B
:1020500002330344013293F8CAE2BEF1000F17D0F5
:1020600093F8C812032913D893F8C982B8F1440F22
:102070000ED807FB01615FFA82FCBEF1010F01F887
:1020800008C005D193F8CB32442B98BF01F803C0A8
:10209000202AD9D1BDE8F08151360020140B002050
:1020A000FFF7C0BF13B503288DF807000AD8FEF765
:1020B000DBF901220DF10701962001F0C3FA18B9EE
:1020C000FFF7B0FF02B010BD9DF807302BB9FFF746
:1020D000A9FF002000F014FAF4E701220DF1070136
:1020E000972001F0AFFA0446FFF79CFF002CE9D0DF
:1020F000EFE7000008B50346084619B19F2902D84A
:10210000012912D108BD01F14002D2B2142AF9D836
:10211000A0F1C8020C2A0ED8DFE802F01616161637
:10212000161616161C2837414900FFF77BFE224B76
:1021300001221A70E6E7214A00F007001188012306
:1021400083400B431380DDE700F00700BDE8084043
:10215000FFF7A8BF58091A4903F01F0301229A404C
:1021600051F82030534041F82030CBE7134B154A4B
:102170001B8843B1B3FA83F31178C3F11F03DBB2B9
:10218000994208BF00231370BCE70F4B1B6893F8FC
:10219000962012B993F89700D8E70020D6E70A4BAB
:1021A0001B6893F89600013000F00300CEE7BDE80D
:1021B0000840FFF7C3BB00BFC4370020C63700206C
:1021C000B8370020C5370020140B002008B508469A
:1021D00019B19F2902D801290FD108BD01F140038F
:1021E000DBB2072BF9D8084900F007000B88012261
:1021F000824023EA02030B80EFE7FFF767FE034B01
:1022000001221A70E9E700BFC6370020C43700205A
:102210002DE9F04F904B1B8887B0002B50D0B3FABC
:1022200083F3C3F11F03DBB20293029B02998B4F2E
:102230008B4EDFF83082B3FA83F35B0901938A4B4C
:1022400003938A4B452202FB013300240593254664
:10225000874BD8F800204FEA541904F01F0A53F8AE
:102260002930049392F89430DB0701D5019B53BBCE
:10227000804B019A53F8293023FA0AF3134242D0D3
:10228000039B01340A33452C039307F1010706F140
:102290000106DDD1784C002D00F0D7802846FEF7EE
:1022A00077FBFFF75DFD2060744C23781BB1FFF7CF
:1022B00065FE0023237007B0BDE8F04FFEF7B8BFFE
:1022C0006F4B1B78B0E792F8961040F2F75B0BFB70
:1022D0000120204490F8480660B1E0B201F044FBD0
:1022E000D8F8002092F896100BFB012393F895364E
:1022F0009807C5D440F2F75303FB012292F89536B4
:10230000DB07B5D4BCE7049B23FA0AFB039B1BF055
:10231000010B597A70D100296ED04F4B029A19885F
:10232000D8F80030E0B24FF0450C40F2F75EB2F161
:10233000FF3F42D1524A117893F8962040F2F75C61
:102340000CFB02F24FF0450C0CFB0122134423441A
:1023500093F8A0B0059B1A5D002A42D0494B327019
:102360000121587083F802B0184602F1FF3B197042
:1023700083F803B0FEF7B6F8D8F8002092F896304C
:1023800040F2F7514B430C2101FB0B331A4492F8F6
:10239000CA32032B18BF45F001053548039950F8A0
:1023A0002920497A22FA0AF303F001034B4003FA89
:1023B0000AF3534040F8293062E741FA02FB1BF070
:1023C000010F0CD093F896B00EFB0BFB0CFB02BB7D
:1023D0009B44A3449BF8A0B0BBF1010FBAD1013AD2
:1023E000A5E787F800B05946FFF784FEBBF1000F60
:1023F00018BF45F00105D0E781F0010313EA0B0295
:1024000016D033783978E0B273B1002232701D4AA9
:102410004FF0040C013B507082F800C09170D370F3
:102420001046FEF75FF8B8E73B70FFF7CFFEB4E762
:102430000029B2D03378002BAFD01248397802701F
:10244000013B44708170C370EBE72668FFF788FC9E
:1024500086427FF423AF27E7C63700206537002088
:102460000C360020140B0020D437002051360020F9
:10247000AC370020B837002004360020C4370020D5
:10248000C53700200836002007B5FFF7A1F9FFF790
:102490004DFCFFF791FAFFF7B5FA01F03FF8FEF7B0
:1024A000CDFF00F099FBFFF703F800F0B1F8FFF75C
:1024B000B7FCFEF78BFEFDF7D5FF01F054FAFFF7EE
:1024C000EFFDFEF7FDFA0D4B01A91B88ADF80430B6
:1024D000012001F053FE00214FF0FF3002F0E8F838
:1024E000FEF720FBFFF7EAF800F096F8FFF790FE02
:1024F00001F09AFA00F07EFBEDE700BF9071000852
:102500002DE9F04FA5B048B18A22002101A803F0BF
:102510008BFE8A2201A90A2001F094F8394E3A4C28
:1025200037680022FD88B7F808E0234640F6FF7CB4
:102530001146101D07EB40001D805D80B0F8028041
:102540009971F0452CBF05EB080005EB0E006045C6
:1025500002F10102A8BF6046452A9880D97119721C
:10256000597203F10A03E4D1FFF7FAFB274F05463E
:1025700040F6FF78FFF7F4FB401BB0F5FA7F02D37B
:1025800025B0BDE8F08FFFF799F8A1464FF0000A9B
:102590004FF0450B336893F896300BFB037313F839
:1025A0000A3033B35FFA8AF0FFF78AF8B9F80030DF
:1025B000B9F80220C3EB031303441909081D904224
:1025C000C3F30F13B8BF0A463168B8BFA9F8023089
:1025D000A9F800300AF1040301EB43030989588884
:1025E00088422CBF131853184345A8BF4346A9F887
:1025F00004300AF1010ABAF1450F09F10A09C9D1FB
:10260000B8E700BF140B0020D4370020607D00081D
:102610000020FFF775BF00002DE9F047554C564FDD
:10262000564EDFF85C810025336893F896304522DA
:1026300002FB03735B5D1BB9A371E37123724BE073
:10264000E8B2FFF73DF82388A2883168C3EB031393
:10265000184402F10409C0F30F1EB9EB101FB8BFF4
:10266000724691F896C0B8BFA4F804E003099645F5
:102670006088A4F800E0F14628BF9146484533D26F
:10268000964533D21B1A121AC3EB8323B3FBF2F322
:102690003C4AD35CA37140F2F75905F1440E09FBA3
:1026A0000CF96A0909EB8E0958F82220894405F0D3
:1026B0001F0A99F8A50022FA0AF202F00102002886
:1026C00008BF42F001029AB10022227299F8A420B8
:1026D0009A428CBF0023012363720135452D04F11A
:1026E0000A04A1D1BDE8F0870023D3E7FF23D1E797
:1026F00099F8A7A0BAF1000F01D199F8A42040F2EF
:10270000F75909FB0CFC0CEB8E0C614494F808E0C3
:1027100091F8A6C0BCF1000F08BF8446BEF1010FBE
:102720000CD0BEF1020F1BD0BEF1000FD5D191F835
:10273000A4209A42D1D2E37101237FE79A4202D3C7
:10274000E37100237AE7E2799C44944504DAE3716B
:10275000022323720023BFE79A42BED2E371BCE793
:102760009A42EDD2E27910449842E4DB9A42B4D91D
:10277000F4E700BFD4370020607D0008140B002070
:10278000C8370020747E000830B5084A440900F0BC
:102790001F0052F8245025FA00F303F001035940BA
:1027A0008140694042F8241030BD00BFC837002086
:1027B00070B505460C4600680968164603F060FDD2
:1027C0002B6833442B6023683344236070BD07B506
:1027D000CDE9002101A840F2F7526946FFF7E8FF72
:1027E000012003B05DF804FB07B5CDE900108A882D
:1027F00040F205139A4217D1982201A86946FFF7C3
:10280000D7FF019B00221A705A7040229A708022D2
:10281000DA705B221A714A225A710120E8229A71F9
:10282000D87103B05DF804FB0020FAE707B5CDE9E5
:1028300000108B88B3F5827F08D101A898226946E1
:10284000FFF7B6FF012003B05DF804FB0020FAE7B4
:1028500007B5CDE900108A8840F203139A4217D1D8
:102860009422694601A8FFF7A3FF009B019A33F861
:10287000021B41F0040122F8021B01A8CDE900323D
:1028800069460222FFF794FF012003B05DF804FBC4
:102890000020FAE707B5CDE900108B88B3F5817FFA
:1028A00017D19422694601A8FFF782FF009B019A85
:1028B00033F8021B41F0020122F8021B01A8CDE906
:1028C000003269460222FFF773FF012003B05DF872
:1028D00004FB0020FAE707B5CDE9002101A840F28A
:1028E000F7326946FFF764FF012003B05DF804FB8F
:1028F00007B5CDE900108B88B3F5807F12D10A228D
:10290000694601A8FFF754FF019B002223F8022B20
:1029100001A8022269460193FFF74AFF012003B094
:102920005DF804FB0020FAE713B50C46CDE9002161
:1029300001A84FF40A726946FFF73AFF621E04F2DB
:10294000131412F8013FA3F17001012940D8063396
:102950001370A242F5D1019C4FF4C072694601A8E0
:10296000FFF726FF234604F5C0720021987803285C
:1029700008BFD9710C339A42F8D1019B452200213E
:10298000184603F051FC042280F84520142280F8F8
:102990004620552280F847205F2280F84820A52253
:1029A00080F84920AA2280F84A20FF2280F84B2094
:1029B00080F84C200346092280F84D204E3301A8B0
:1029C000012269460193FFF7F3FE012002B010BD1A
:1029D000A3F172012429BCD80933B9E707B5CDE9C1
:1029E0000012684640F2F73201A9FFF7E1FE01202C
:1029F00003B05DF804FB07B5CDE90012684640F26C
:102A0000F73201A9FFF7D4FE012003B05DF804FB03
:102A100013B5CDE9002101A84FF40A726946FFF70A
:102A2000C7FE20240C22694601A8013CFFF7C0FE26
:102A300014F0FF04F6D18022FF21019B013A1C8093
:102A40009C70D97003F104030193F6D101A84F22C1
:102A50006946FFF7ADFE012002B010BD07B5CDE914
:102A600000108A8840F201139A4217D10A2269465F
:102A700001A8FFF79DFE019B8A220021184603F062
:102A8000D3FB042203468A330DEB0200694601930F
:102A9000FFF78EFE012003B05DF804FB0020FAE78B
:102AA0003E4B2DE9F04F19683D4B0A68ADF5445D8A
:102AB0009A4285B005D000200DF5445D05B0BDE813
:102AC000F08F04AD8B8801934FF4C452284603F075
:102AD000D7FBDFF8D090012600244FF0120A0AFB42
:102AE00006F3019939F803B009EB03021FFA8BF3DF
:102AF0008B423AD9634203F4C453EB1884F00104C7
:102B000000936742D2F80A3007F4C4572F44002BD1
:102B10003DD10AFB0693D3F80E3023B3721E0AFB95
:102B200002F24FF000080292029A03934A44D2F84C
:102B30000610D2F8022008FB01220AFB0691D1F808
:102B40000600D1F8021008FB001100983944024435
:102B50005FFA88F098470028ADD008F10108B8F175
:102B6000040F039BE0D1A7F804B00136072EB6D1BD
:102B7000644204F4C454291901F580530A4AC3F885
:102B80007C2800204FF4C45200F05CFD94E70099CB
:102B9000384698470028BCD18DE700BF140B0020B1
:102BA0004C49420A74820008484D4B0A60B10378D0
:102BB000012B08D84378032B05D8C07901288CBF96
:102BC000002001207047002070470000014B0122C7
:102BD0001A7070478C3A002008B5FEF769FF034B66
:102BE00001221A70024B00221A6008BD8C3A0020A4
:102BF000883A00202DE9F04F87B0FFF7B1F8A14BDC
:102C000000901C6894F8983023B194F89930003BF8
:102C100018BF01239C4A12784AB9002B00F0148196
:102C20009A4B009A1B68D31A202B40F20D819848CA
:102C3000CC22002103F0F8FA94F89830002B00F031
:102C4000F98094F89B20009B94F899A094F89AE05E
:102C5000DB0810325A43D309BAF1010FC2F3C7128D
:102C6000019212D1190654BF1346DB435B00DBB25D
:102C7000C3EBC303DB1020337F22DBB21EFB032335
:102C8000FF22B3FBF2F35FFA83FE824B804D049385
:102C90000023AB4602934FF0FF084FF07F09049BDF
:102CA00033F8022BCDE90323531E0593DC4600279E
:102CB00063E094F89F30ABB1029B9BB1059BDA1B9C
:102CC000BAF1020F22D1019BC2EBC2021A44D2B266
:102CD000542A09D802EB4202D1B2C843C0B200263E
:102CE000734635E03A46EBE7A92A07D8553A02EB96
:102CF0004202D6B2F143C9B20020F1E7563202EBEC
:102D00004202D0B2C643F6B20021E9E7BAF1030F9E
:102D100094F89C0094F89D1094F89E60E0D1019B7B
:102D200002EB420203EB8202D3B2120648BFC3F1A8
:102D3000FF035B00DBB2C3EBC30303EB4313B3FB43
:102D4000F8F31833DBB21EFB0393B3FBF8F3DBB2EB
:102D500010FB039013FB0191B0FBF8F013FB0693FB
:102D60008CF80000B1FBF8F1B3FBF8F38CF801101C
:102D70008CF8023001370CF1030C039BBB4298D84E
:102D8000029B01330122022B0BF1660B029286D1CA
:102D900000203F4A0346547811782144947801304A
:102DA00021441F280B4402F10302F4D1384A0020C9
:102DB00092F8674092F86610214492F8684001301A
:102DC000214422280B4402F10302F1D10C22534387
:102DD000314AFE3393422DD900207F24FF21FE3A51
:102DE000B3FBF1F3B2FBF3F21F2805F1030519D091
:102DF00015F8033C12FB0343B3FBF1F305F8033C66
:102E000015F8023C13FB0243B3FBF1F305F8023C57
:102E100015F8013C013013FB0243B3FBF1F305F855
:102E2000013CE1E71D4B00207F24FF25222803F110
:102E300003030CD117491648FEF7AEFE134B009A58
:102E40001A60114B00221A7007B0BDE8F08F13F81A
:102E5000031C11FB0241B1FBF5F103F8031C13F84D
:102E6000021C12FB0141B1FBF5F103F8021C13F83F
:102E7000011C013012FB0141B1FBF5F103F8011C0B
:102E8000D4E700BF140B00208C3A0020883A0020C1
:102E90008D3A0020F2820008A05D0100F33A002084
:102EA00000487047F284000802289ABF024B53F88A
:102EB00020000020704700BFF8820008974B984818
:102EC0001B6893F89410CB0747BF822304225B232F
:102ED000032211F0040F4FF0A0012DE9F04FC17152
:102EE0004FF045074FF0FA014FF009044FF002068A
:102EF0004FF0070C4FF004084FF0210E4FF0220A5C
:102F0000837002714FF000034FF0010201724FF025
:102F1000110B4FF0030147764FF005070470427123
:102F200044724273C2730274847480F814B04275A0
:102F3000C27580F818A04670C370837180F80A804B
:102F4000C37203738173437480F813E083758376CF
:102F500080F81BC04FF08109077780F82DB06FF023
:102F6000780B0CBF0825012580F81D9080F832B041
:102F70004FF040096FF07D0B80F8224080F824204C
:102F800080F8262080F82B4080F82E2080F8302012
:102F900080F831A080F836B080F83B40817780F827
:102FA0001F9080F8203080F8215080F8238080F82E
:102FB000253080F8271080F8283080F8293080F8F4
:102FC0002A3080F82CE080F82F3080F8333080F8F9
:102FD00034C080F8357080F8371080F8389080F869
:102FE000393080F83A5080F83C804FF0110B80F86F
:102FF0003D6080F8444080F84AA080F84BA080F8FB
:103000005B404FF0830AFF2480F8472080F8492076
:1030100080F84F2080F83E3080F83F6080F8401004
:1030200080F8413080F8423080F8433080F845E045
:1030300080F846B080F8483080F84C3080F84DC0B9
:1030400080F84E7080F8501080F8519080F852301F
:1030500080F8535080F854C080F8557080F856A01E
:1030600080F8571080F8589080F8593080F85A50FE
:1030700080F85C8080F85D1080F85E3080F86040F9
:103080005D2480F8614080F86220102480F8672079
:1030900080F86820242280F8644080F8664080F838
:1030A00069201424842280F86A2080F86B4080F81C
:1030B00076201324202280F85F6080F8633080F847
:1030C00065E080F86C1080F86D3080F86E1080F844
:1030D0006F4080F8706080F8713080F8721080F86E
:1030E000733080F874C080F8757080F8771080F8BD
:1030F000782080F8793080F87A5080F87BC080F8AA
:103100007C7080F87D6080F87E1080F87F2080F8E9
:10311000803080F88150BDE8F08F00BF140B002094
:103120001E3C002000487047FA830008954B9648E3
:103130001B6893F89410CB0747BF822304225B23BC
:10314000032211F0040F4FF0A0012DE9F04FC171DF
:103150004FF045054FF0FA014FF009044FF0050715
:103160004FF004084FF0210E4FF0220A4FF0110BE0
:10317000837002714FF000034FF001020172457637
:103180004FF003014FF007054FF0810C04704271BE
:1031900044724273C273027484744275C27580F8BB
:1031A00018A0C370837180F80A80C372037381739F
:1031B000437480F813E080F814B083758376C57685
:1031C000077780F81DC04FF0870C80F832C04FF0B1
:1031D000820C0CBF082601264FF0400980F836C04B
:1031E0004FF0020C80F8224080F8242080F826203E
:1031F00080F82B4080F82E2080F8302080F831A015
:1032000080F83B40817780F81F9080F8203080F86C
:10321000216080F8238080F8253080F8271080F81E
:10322000283080F8293080F82A3080F82CE080F8A7
:103230002DB080F82F3080F8333080F8345080F88B
:10324000357080F8371080F8389080F8393080F881
:103250003A6080F83C8080F83DC080F83E3080F8CD
:10326000444080F84AA080F84BA080F85B404FF0C3
:10327000830AFF2480F8472080F8492080F84F20F7
:1032800080F83FC080F8401080F8413080F842302C
:1032900080F8433080F845E080F846B080F8483048
:1032A00080F84C3080F84D5080F84E7080F8501007
:1032B00080F8519080F8523080F8536080F8545074
:1032C00080F8557080F856A080F8571080F8589014
:1032D00080F8593080F85A6080F85C8080F85D1082
:1032E00080F85E3080F85FC080F860405D2480F830
:1032F000614080F86220102480F8672080F8682000
:10330000242280F8644080F8664080F86920142404
:10331000842280F86A2080F86B4080F8762013249D
:10332000202280F8633080F865E080F86C1080F827
:103330006D3080F86E1080F86F4080F870C080F8B3
:10334000713080F8721080F8733080F8745080F813
:10335000757080F8771080F8782080F8793080F8E0
:103360007A6080F87B5080F87C7080F87DC080F8AF
:103370007E1080F87F2080F8803080F88160457072
:10338000BDE8F08F140B00209C3B002010B588B0E6
:10339000A8B1032821D02ED8184B53F8204020463E
:1033A000FCF71EFF202828BF2020154A234621189D
:1033B0008B4209D013F8014B22F8024FF8E7104B6B
:1033C00040F209425A800120431C0D4A5B0043F43D
:1033D00040731380104608B010BD6846FEF7B8FA77
:1033E00007496B4600228242EED013F8014B21F8C8
:1033F000024F0132F7E70020EDE700BFE883000845
:103400005A3B002000487047B68300080B46012B4A
:1034100011460ED1137803F06003402B0BD1537883
:10342000012B08D19388072B05D1044AB22301F060
:1034300085BC012070470020704700BF048300084E
:1034400008B54FF400520448FF2102F0EDFE034B93
:1034500042F204021A6008BDAC3C0020A03C0020EF
:10346000144B13B51C687F2C1DD9134C13492068CD
:103470004FF40062FEF7F9FA78B100224FF40051E0
:103480000E48FEF79FFA01902068012201A900F57D
:103490000050FEF7EAFA4000C0B2094B42F20402C3
:1034A0001A6002B010BD2046FEF7ADFA0028F8D031
:1034B0000134D8E7A83C0020A43C0020AC3C00200C
:1034C000A03C0020044B1B68B3F5903F01D3FFF7ED
:1034D000C7BF0120704700BFA03C002013B5094BB7
:1034E000094C1B6801902068012201A91844FEF7CD
:1034F000BCFA20B1236804332360FFF7E3FF02B076
:1035000010BD00BFA43C0020A03C002008B5FFF780
:1035100097FFFFF7A5FFC0F3400008BDF0B57F257A
:1035200085B000242846FDF7BDFF0444B4F5903F64
:1035300063D3404B1D60404D404EC4F580242C6049
:10354000FFF77EFF3D494FF400622046FEF77AFA0E
:10355000002855D000224FF400513046FEF732FAD1
:1035600004462868012202A900F50050FEF76AFA15
:10357000002845D0029B9C4242D142F204042868B4
:10358000012201A92044FEF75DFA002846D0019BE4
:103590005A1C30D00293C3F307231F2B04F10407F6
:1035A0003AD903F0E003E02B36D0BDF808309DF89F
:1035B0000920C3F30C0303EB5213B3F5005F4FEA8A
:1035C000521129DC022925D92868012203A938448F
:1035D000FEF738FA00B30834BDF808009DF809205A
:1035E000C0F30C0052090DF10A01304402F048FE0C
:1035F000B4F5903FC3D3012010E0013D92D29AE789
:10360000FFF71EFFFFF782FF88B905B0BDE8F04065
:10361000FEF78EB93C46DFE73C460020084B1C60B5
:1036200010B9FFF71DFFEFE7FFF74CFFECE705B020
:10363000F0BD00BFA83C0020A43C0020AC3C002012
:10364000A03C00202DE9F34114468218B2F5005F3A
:1036500005460B464FD82A4A1F46002C4DD013F87A
:10366000016B515D8E4205EB020034D0002C44D03A
:10367000631EF95CC25C914230D02246394602F0AA
:10368000FFFD4FF00008CDF80180BDF80030CDF807
:103690000480062C65F30C032646ADF8003028BFE5
:1036A0000626C3F3072366F34713324639460DF166
:1036B00002008DF8013002F0E3FD0098FFF70EFFE5
:1036C000012812D1022C0BD8A41B35443744DAD17F
:1036D000FFF7F8FE09E00135013CBDE71C46C5E7F0
:1036E0000198FFF7FBFE0128EED0003818BF01203B
:1036F00002B0BDE8F0810020FAE70120F8E700BF42
:10370000AC3C0020B0F1804F03462ABF00F140439B
:1037100000204FF40040C20302F18052934224BFC4
:1037200000F580409B1A820302F18062934224BF1D
:1037300000F500509B1A420302F18072934224BFAD
:1037400000F580509B1A020302F58002934224BFC9
:1037500000F500609B1AC20202F58012934224BF5A
:1037600000F580609B1A820202F58022934224BFFA
:1037700000F500709B1A420202F58032934224BF8A
:1037800000F580709B1A020202F58042934224BF2A
:1037900080309B1AC20102F58052934224BF403010
:1037A0009B1A820102F58062934224BF20309B1A4B
:1037B000420102F58072934224BF10309B1A02012D
:1037C0004032934224BF08309B1AC2001032934209
:1037D00024BF04309B1A82000432934224BF02307B
:1037E0009B1A42000132934228BF0130704749437F
:1037F0004BF60162A2EB510292B24B08B2F5A04F18
:1038000023BFC3F5DC4301339AB2802328BFC02312
:10381000990101F5806189B291429FBF20339BB22B
:10382000511A8AB2590101F5807189B291429FBF44
:1038300010339BB2511A8AB21901403189B29142B8
:103840009FBF08339BB2511A8AB2D900103189B296
:1038500091429FBF04339BB2511A8AB2990004313E
:1038600089B291429FBF02339BB2511A8AB259006A
:10387000013189B291429CBF01339BB210FB03F02E
:10388000FF23B0FBF3F0C0B27047000070B51D4BD2
:103890001C6894F8963040F2F752534303F28D635C
:1038A000E2189579854234BF012500250D7024D397
:1038B000E35C834223D2937883421AD21379834202
:1038C00019D29179814234BF032102214C00023484
:1038D00002EB4103161912F811505B787178125DF2
:1038E000401BC91A4143521B91FBF2F29818C0B217
:1038F00070BD0021EAE70121E8E7FF20F8E700209A
:10390000F6E700BF140B002070470120704701202C
:103910007047000037B54B79FF2B02D0002003B071
:1039200030BD8B795D2BF9D1CB79012BF6D10B789A
:10393000CC5CCD18094B0193094B00930A79032302
:10394000291900F0E7FD38B94FF0E023D3F8F03D36
:10395000DB07E3D500BEE1E72720E0E7CD5C0020F0
:10396000CC5C002070477047F0B5294B1B6893F87A
:10397000962040F2F75101FB0233034493F8483696
:103980002BB10F2B04D9103BDAB2092A31D9F0BD83
:10399000204C214A450900F01F0754F825604FF0DC
:1039A0000A0C26FA07F10CFB002211F00101527AF1
:1039B00011D182B1DFF864C0DFF864E0BCF8020026
:1039C0003EF813300343ACF802304A40BA4072402C
:1039D00044F82520DBE782F001000842F5D00F48CB
:1039E000DFF83CC03CF813C0438823EA0C03438053
:1039F000EBE7094A0B490A2404FB002231F81300C3
:103A00009279824238BF024621F81320BFE700BFF7
:103A1000140B0020C05C0020D437002011060020C9
:103A200030850008AC5C00202DE9F04F7A4C7B4DCE
:103A3000207CDFF8EC8187B00DF10F01FFF726FF46
:103A40000DF10F012871A07CFFF720FF754B687105
:103A50001868002290F89650CDE9042240F2F753FE
:103A600003FB050304AF93F89566BC46C6F3C00696
:103A700041464B7891F800E0103BAEF1100E34F85F
:103A8000133034F81EE0002E00F0AC80734538BFD0
:103A900073460132042A2CF8023B01F10201E8D1FD
:103AA00040F2F75304AE4FF0000A03FB05093588D6
:103AB000748805FB05F004FB0400FFF723FE0146B4
:103AC000002837D0A54200F29580C5EB0523B3FB53
:103AD000F4F340F09180C4EB042BBBFBF5FB0BFB34
:103AE0000BF003FB03000193FFF70CFEC1EB012178
:103AF000B1FBF0F00DF10F01C0B2FFF7C7FE9DF86A
:103B00000F20019B002A7AD0002D18BFFF25002C22
:103B100018BFFF2499F895365B0779D4EDB2E4B26B
:103B200021462846FFF763FE294630802046FFF7EE
:103B30005EFE70800AF10103022B06F104064FF0CD
:103B4000010AB4D1344C354D002298F8010098F8A0
:103B5000001037F8023B1038103934F8100034F8F0
:103B60001110DB01884298BF5B4205EB4201013234
:103B70001BB2042ACB8008F10208E6D100F0D6FA85
:103B8000044600F0DBFA2CB320BB274D297809B39B
:103B900000F036FD0446E8B924492048142202F01A
:103BA0001AFBB8B12978204600F0E2FC1B4A2978BC
:103BB0001423204600F0F8FC2978204600F0E6FCAB
:103BC000164B1A4A03F1140153F8040B42F8040B84
:103BD0008B42F9D110481422002107B0BDE8F04F04
:103BE00002F022BB1BB2A3EB0E03002BB8BF5B425B
:103BF0009BB24EE7FF236EE74FF0FF0B6FE7FF240A
:103C0000434300FB0BFBB3FBF4F5BBFBF4F481E790
:103C1000358074808EE700BFAC5C00201106002068
:103C200028850008140B0020CD5C0020FD05002035
:103C30000123037000487047048500087047012085
:103C40007047704738B50C4B0C2202FB00335C7890
:103C500000F06CFA054600F071FA55B148B92CB184
:103C6000214600F0CDFC80F00101CCB204F001004F
:103C700038BD0024FAE700BF105F002002282DE9BC
:103C8000F0470546894616461C4638D8DFF874804A
:103C90000C2303FB00830020597800F069FC70B30B
:103CA000C022194B6A4302F140071F44B9F1000FCB
:103CB0001AD0134483F840906CB90134A4B20C2399
:103CC00003FB05883A4698F8011023460020BDE81A
:103CD000F04700F069BC96B13F2C10D8224631461F
:103CE000781C02F0CDFAE8E7002CE8D03EB1402C79
:103CF00005D822463146384602F0C2FADFE70020F6
:103D0000BDE8F087105F0020D05C002001207047E4
:103D100002482422002102F087BA00BF105F002071
:103D20000020FFF7F5BF00002DE9F34113464A7963
:103D3000032A07460D4623D10A79C2EBC206123682
:103D4000B6B29E4215D8284C94F80180B8F1000F05
:103D50000AD0637B2BB1637E5BB918344FF0020845
:103D600002E00C344FF001082B78E918487821283C
:103D70000BD04FF0E023D3F8F03DDA0700D500BEBA
:103D80000026304602B0BDE8F081A160E85C631C0B
:103D90000193A31C009301440323384600F0BAFBAF
:103DA0000028E6D0AB79A178012B04BFEB79E37052
:103DB0000123A371AB782370A368B3F80730A38005
:103DC0000029DED0094AC02000FB082240233846E3
:103DD00000F0EAFB0028D4D14FF0E023D3F8F03D07
:103DE000DB07CED500BECCE7105F0020505D002081
:103DF0002DE9F3411546127802F01F06012E074601
:103E00000B4675D16C4CA9882078C9B2884221D064
:103E1000207B884203D0207E884269D1022612F09E
:103E2000600228D1012B40F097806B78062B5FD180
:103E30006B881B0A212B0FD10C2303FB06439A68C6
:103E4000002A55D013782946384602B0BDE8F04123
:103E500000F074BF0026E2E7222B49D13046FFF77D
:103E600023F80C2303FB064302469B882946384669
:103E700000F064FF70E0202A3AD16A78013A0A2AF9
:103E800036D8DFE802F0067D8435353535353E6BB2
:103E90008B00012B60D1B5F806C06988DFF81CE102
:103EA000604640284FF0C0044FEA112206FB04F49C
:103EB00028BF402011F0FF0104EB0E081CD0BCF11C
:103EC000010F19D901380EF8041008F1010C80B265
:103ED0001C46009063463046FEF78AF823189BB2D2
:103EE0006BB94FF0E023D3F8F03DDB0700D500BEFF
:103EF000002002B0BDE8F081C4460024E9E7424654
:103F0000B4E7012B07D1EB88402BF1D82B4AC02115
:103F100001FB0622AAE7032B1ED16988ED88274FF3
:103F2000402D4FF0C0044FEA112206FB04F428464E
:103F300028BF402011F0FF0104EB070308D0012D3A
:103F400006D93C5D8C4202BF00F1FF30013380B2E4
:103F500000903046FEF74EF80120CAE7012BFBD156
:103F600069880C2303FB0643090A3046D971FFF721
:103F700066FE0028BCD02946384600F0CDFEEBE7AF
:103F8000012BE9D10C2202FB064207326EE7012B1E
:103F9000E2D10C2202FB0642063267E7012BEAD08F
:103FA000032BD9D169880C2303FB0643C9B23046E1
:103FB0009971FFF743FECFE7105F0020D05C00202F
:103FC0002DE9F3410C461146264A80460026174645
:103FD0009078A04210D05078A0420DD00136032E28
:103FE00002F10C02F4D14FF0E023D3F8F03DDB07EF
:103FF00000D500BE002013E00C2202FB0672C02593
:104000005278A242F0B2184C9BB206FB05F50FD1D4
:1040100040352C4439B91A462146FDF7FAFF0120F4
:1040200002B0BDE8F08122460121FFF70AFEF6E763
:1040300080352C4481B9009302222346FDF7DAFF34
:104040000C2303FB06772246B9784023404600F054
:10405000ABFA0028E3D1C6E722460221FFF7F1FDC3
:10406000EEE700BF105F0020D05C00202DE9F0419A
:104070001A4F1B4DDFF86C800646002439784B1C24
:10408000E2B2DBB2934210D834220021164802F08B
:10409000CBF81022FF21154802F0C6F8BDE8F04128
:1040A00013481022FF2102F0BFB891420DD9D8F871
:1040B0000030242101FB02334BB94FF0E023D3F849
:1040C000F03DDB0708D4BDE8F081F6D12B46DB6874
:1040D000304698470134D1E700BEF4E7F85F00208E
:1040E00050850008FC5F0020016000200560002072
:1040F0001560002070B50C4605461646486900F06C
:104100004FFE6369324628460121BDE870401847DA
:10411000034A034610780BB101F052B901F066B9B9
:10412000400600207047704770477047024B587830
:10413000003818BF0120704701600020024B18783A
:10414000C0F38000704700BF01600020094B1A785F
:1041500010B5C2F38004520708D51B7803F018038A
:10416000182B05D1044B187801F05AF9204610BDE0
:104170000024FBE701600020400600202DE9F04705
:10418000DFF8A48098F80030FF2B05460E4646D194
:1041900049B94FF0E023D3F8F03DDB0700D500BE6E
:1041A0000020BDE8F087342200212048204FDFF8AE
:1041B000849002F039F8204B204800241C7002F053
:1041C00005F81F4B1F4A1A603846FFF731FD3B7850
:1041D000C9F80000FF2BDCD01B4A4FF0240A0DE089
:1041E00088421ED9D9F800300AFB0133002BD0D009
:1041F0005B680134002BCCD09847134A3878431CB5
:10420000E1B2DBB28B42EBD83146284688F8005049
:1042100001F04EF90028BCD0284601F0D1F8012069
:10422000BFE7B6D11346E3E7400600200160002057
:10423000F85F0020FC5F0020006000202C060020BA
:10424000345F002028060020508500082DE9F04347
:104250004378023B85B004460E46052B16D8DFE8AE
:1042600013F00600B2002A003200C900CE00844BD1
:104270001A7822F001021A701A78002122F0020244
:104280001A7059701A7861F382021A707D4B1F6898
:1042900016B93B68304698472146381D01F06DFF3E
:1042A000054616B93B6801209847002D78D0617803
:1042B000207832469BE0724B1A78D70777D51A7868
:1042C00042F00402E1E76E4A1378DD076FD51378F8
:1042D00023F004031370D9E791426BD9D9F8003069
:1042E000242101FB0233002B66D1013798F800101E
:1042F0004B1CFAB2DBB29342EED8614D2B785807D3
:104300002CD52B7823F004032B700023CDF8063036
:10431000CDF80A30ADF80E3023788DF8043005233F
:104320008DF80530574BD3F800801EB9D8F800300F
:104330003046984701A908F1040001F01EFF074626
:104340001EB9D8F8003001209847002F42D14FF015
:10435000E023D3F8F03DD90700D500BEEB78DA07AB
:1043600025D50023CDF80630CDF80A30ADF80E3053
:1043700023788DF8043003238DF8053063680293A9
:10438000404B1D6816B92B683046984701A9281D77
:1043900001F0F3FE044616B92B68012098470CBBC8
:1043A0004FF0E023D3F8F03DDB0700D500BE05B0A9
:1043B000BDE8F08399D12B461B6A002B95D061682C
:1043C0002078984791E7DFF8C080304DDFF8C09043
:1043D00000278BE79DF805109DF804003246FFF793
:1043E000A1FEBBE79DF805109DF804003246FFF7DB
:1043F00099FEDCE7274A13780133DBB26AE70179DB
:1044000011F00F033FF442AF1D4D4FEA430C05EB93
:10441000430303EBD113C8091A7D1B4B1B789A4247
:1044200029D21B4B1B68242707FB0233002B3FF4C8
:104430002DAFDF69002F3FF429AF65440544627951
:1044400095F8243023F0010385F8243095F82430C2
:1044500023F0040385F824302078A3682035B8477A
:104460000028A4D12B7943F001032B712B7943F061
:1044700004032B710AE77FF409AF044BD9E700BFAF
:1044800001600020345F0020F85F002050850008A4
:10449000FC5F00200060002010B5054C18B963686F
:1044A0000BB92368984763680133636010BD00BF90
:1044B00038060020054A536833B1013B536018B9F0
:1044C00013B9136801201847704700BF3806002051
:1044D00038B58A7812F008020C4608D04FF0E02375
:1044E000D3F8F03DDB0700D500BE002038BD074BF8
:1044F0001D78074B2046997801F00CFC0028EDD080
:1045000021462846BDE8384001F040B8400600206A
:10451000016000202DE9F047DDE9086781460C467F
:1045200090469A460025A84501DC01200AE0637800
:10453000052B09D04FF0E023D3F8F03DDB0700D581
:1045400000BE0020BDE8F087E37803F00303534585
:10455000F0D121464846FFF7BBFF0028EAD0A378F8
:10456000DA0914BF3B703370237801351C44DAE755
:10457000CB0901F00F020448243303EB420300216E
:10458000184401F09ABB00BF01600020CB0901F084
:104590000F020448243303EB42030021184401F0C6
:1045A000A7BB00BF0160002038B5134C01F00F0518
:1045B00004EB450404EBD11420342079C00708D55E
:1045C0004FF0E023D3F8F03DDB0700D500BE00201C
:1045D00038BD207940F0010020710848007801F0D2
:1045E0003FF80028F4D1227960F300022271227989
:1045F00060F382022271E3E70160002040060020A0
:10460000054B01F00F0203EB420303EBD11191F8CC
:10461000240000F0010070470160002010B50C4B31
:1046200018780C4601F062F80A4904F00F0301EB18
:10463000430101EBD41191F8243043F0020381F8D7
:10464000243091F8243043F0010381F8243010BD68
:10465000400600200160002010B50C4B18780C4675
:1046600001F056F80A4904F00F0301EB430101EB96
:10467000D41191F8243023F0020381F8243091F80A
:10468000243023F0010381F8243010BD40060020BF
:1046900001600020054B01F00F0203EB420303EB26
:1046A000D11191F82400C0F3400070470160002050
:1046B0002DE9F04F984B1B78FF2B87B03DD0974FDB
:1046C000974B1D682C46002054F8043B9847204621
:1046D00003A901F02AFD2B6804460120984764B322
:1046E0009DF80D30013B072B00F2D082DFE813F07C
:1046F00008001200C602AE02B8021B007002BF0220
:104700009DF80C00FFF7B2FC00F042FB9DF8103062
:10471000BB70D5E79DF80C00FFF7A8FC00F038FB54
:10472000FFF703FDCCE77F4A13784BB94FF0E02346
:10473000D3F8F03DDC0700D500BE07B0BDE8F08F30
:104740001378013BDBB21370137803F0FF00002BEA
:10475000B6D1724C9DF80C50237843F001032370BE
:1047600094F8243060F3000384F8243094F8243063
:1047700060F3820384F8243094F8253060F300035A
:1047800084F8253094F8253060F3820384F82530CE
:1047900000F006FB9DF8102002F06003602B07D1AB
:1047A0004FF0E023D3F8F03DDD072BD500BE29E024
:1047B000402B0BD15C4800F0F3FA04AA01212846F3
:1047C000FEF724FE00287FF47BAF1BE002F01F02FF
:1047D000012A00F07E81022A00F0AC81002ADFD19C
:1047E000202B21D19DF814300F2B0BD84F4A234496
:1047F00012781B79934210D24D4A1168242202FB91
:10480000031161B99DF80C00002100F06FFF9DF8C5
:104810000C00802100F06AFF52E7F3D1454904AA59
:104820002846FFF767FCCDE7002BB9D19DF8113082
:10483000092BB5D801A252F823F000BFB14A0008F5
:104840009F4A0008A14700088B4A0008A1470008BA
:1048500065480008E1490008A14700087F480008B2
:104860008948000804A800F0A1FA9DF81210284613
:1048700000F026FF237843F00203237020E76378DB
:104880008DF80A3001231DE19DF8126063789E4285
:1048900013D063786BB10021284600F05FFE2846F4
:1048A00000F08EFE94F802802846FFF7DFFB84F8C4
:1048B0000280667036B9FFF738FC04A9284600F07C
:1048C0002BFAFDE6701EC0B2FEF7F8FA10B143787D
:1048D000022B08D04FF0E023D3F8F03DD9077DD468
:1048E000002363705CE7C379C3F38012C3F3401302
:1048F0001B0143EA4213227822F030021343237053
:104900004388C31800F109060093009BB34213D8F3
:10491000FFF70AFCD1E700BF40060020016000203D
:10492000345F0020006000200D340008F85F002094
:10493000FC5F00205085000873780B2B03BF327892
:10494000F378B61801237278042AC3D1009AA2EB37
:10495000060A1FFA8AFA4FF0000BB64A11784A1C71
:104960005FFA8BF8D2B24245B4D9414515D9B24A63
:104970001268242101FB0822002AABD0D2F8109043
:104980000193524631462846C8470828019B814674
:1049900021D982451FD300210CE09BD1A74AEDE726
:1049A000B078024454FA82F201311079FF2891D193
:1049B00082F80480CAB29342F2D843463146A048F6
:1049C0004A4601F0EBF99B4B1B780133DBB24345C0
:1049D0004E449AD87EE70BF1010BBEE700BE7FE79D
:1049E000BDF812301A0AD8B2531E0E2B3FF60AAF8A
:1049F00001A151F823F000BF354A0008574A0008CA
:104A0000714A00080548000805480008854A000862
:104A1000574A0008054800080548000805480008EE
:104A20000548000805480008054800080548000832
:104A30004D4A0008FEF734FA024600283FF4B0AEB3
:104A4000122304A9284600F079F9BBE6FEF7DAFC48
:104A5000024640B9D6E6022A07D1FEF72FFA0246EF
:104A600000283FF49DAE5388EBE7FEF75FFBEFE7CE
:104A7000BDF81410FEF78AFC024600283FF4C2AECF
:104A80000378DEE7FEF74EFBF6E7BDF81230012BA8
:104A90007FF4B8AE237843F0080323700DE7BDF828
:104AA0001230012B7FF4AEAE237823F00803F4E735
:104AB0002378C3F340129B0803F002031343ADF8BD
:104AC0000A3002230DF10A0204A9284600F036F943
:104AD000F6E59DF814300F2B3FF694AE554A23446B
:104AE00012781B7993421ED2534A1168242202FB8A
:104AF000031100293FF486AE04AA2846FFF7FAFA0C
:104B000000287FF4DDAD9DF8103013F060047FF4D1
:104B100079AE00F045F99DF811300A2B07D00B2B28
:104B20003FF4CBAE6EE67FF46DAE4449E4E78DF81A
:104B30000A40A7E69DF814100A073FF531AE01F0D0
:104B40000F0204EB42023B4802EBD1120078127DC7
:104B5000824214D238480668242000FB0266ABB9B2
:104B60009DF8113003F0FD02012A15D0002B7FF4CF
:104B700017AE2846FFF78EFDADF80A00A1E700F05A
:104B80008E80002B7FF43EAE0026E9E7002E3FF436
:104B900039AE04AA314643E6BDF8122022B9012BF2
:104BA000284612D1FFF758FD002E3FF489AD31465B
:104BB00004AA2846FFF79EFA002000F0F1F894F8C6
:104BC0002530DE073FF57CAD77E6FFF727FDEBE705
:104BD0009DF8101001F00F0407EB440202EBD11214
:104BE00092F8243023F0010382F8243092F8243024
:104BF00023F0040382F824303CB9059B9DF8112072
:104C00009DF80C0000F0E0F85AE50A4B127D1B7885
:104C10009A4217D2084B1B68242000FB0233002B5A
:104C20003FF484AD9C699DF81120059B9DF80C0014
:104C3000A04745E5F85F0020FC5F00205085000894
:104C4000156000207FF472AD174BEBE73B78D80777
:104C50007FF536AD3878C0F3C000FCF7A1FE2FE534
:104C60003B78D9077FF52CADFCF7A0FE28E5049B27
:104C7000002B3FF425AD0598984721E5FB78DA072E
:104C80007FF51EAD0498FFF74EFA19E54FF0E023CB
:104C9000D3F8F03DDB077FF513AD00BE10E5024E03
:104CA000002B7FF476AF5BE750850008144B9989A1
:104CB000DA8970B58C1AA4B2054693F90000402C2D
:104CC00028BF402400280FDA914213D09968A1B17F
:104CD0000C48224601F0D4FA80210A4A234628468D
:104CE000BDE87040FFF760BC91424FF00001F4D185
:104CF0000A46F3E780210022F0E7084670BD00BFB6
:104D00007860002038600020C94300231A4601F073
:104D10008001FFF749BC704730B4074C05460B468D
:104D200008684968224603C20022C4E902222846D4
:104D3000197830BCFFF7E8BF78600020F8B5134E53
:104D40000C46054608684968B260374603C700212B
:104D5000F181E1888B4228BF0B46B38189B14BB109
:104D600042B94FF0E023D3F8F03DDB0700D500BE99
:104D7000002005E02846FFF799FF0028F1D0012028
:104D8000F8BD21782846FFF7BFFFF6E778600020DE
:104D900002481422002101F047BA00BF78600020C9
:104DA000014B1861704700BF7860002010B50246C3
:104DB000044C00685168234603C30023C4E902334E
:104DC00010BD00BF7860002070B5284C1E462378C7
:104DD000C909B1EBD31F054613D03EB14FF0E02314
:104DE000D3F8F03DDB073FD4002070BD2146FFF72C
:104DF00092FF23691BB122460321284698470120D0
:104E0000F3E794F90030002B06DBA0680028EBD014
:104E10001749324601F034FAA268E3893244334438
:104E2000A260E2889BB29A42E38101D03F2E17D85C
:104E3000236933B921782846FFF766FF0028DED1C1
:104E4000CCE70221094A2846984701460028F1D1BB
:104E5000284600F04BFC8021284600F047FCCEE7B6
:104E60002846FFF723FFE9E700BEBDE77860002092
:104E700038600020274B70B503EB001501F00F04DC
:104E80002E7AA64208D84FF0E023D3F8F03DD90798
:104E900000D500BE002070BD00F1FF3CDCF1000039
:104EA00040EB0C000001C909185802F103034FEA56
:104EB00093030FD1C3F30D0308333344426A5B00FD
:104EC0009BB29A4204D2144A92889A42DBD343623C
:104ED0000120E0E76D7A104925B18A799542D2D94F
:104EE00001328A718268456A12065CBF5B009BB220
:104EF0008A881D44AA42C6D3D21A92B28A8042EA54
:104F000003430CB98362E3E704F13F0200EB820044
:104F10004360DDE7748500089460002000F1FF3CE9
:104F2000DCF1000141EB0C010A4B0901595803EB7C
:104F300000131A7ADB68183252004A628A6C064AF9
:104F40009B0893801A0412FA83F3CB6540228021D8
:104F5000FFF790BF7485000894600020F0B5431EF1
:104F6000584258418E78214B214F0001F5091C58B9
:104F70008B88D4F808E806F00F004FEA400C0CEBE1
:104F8000D61207EB0212C3F30A0353818A791EF08B
:104F9000060F04BF02F1FF324FF0010EAC4408BF10
:104FA0000EFA02F207EB0C1708BFD2B23A73CA78B6
:104FB00002F003014A1E43F4004343EA814318BF51
:104FC000012243EA02730DB166F3995385F001059E
:104FD00000EB051202F14801490163500123D4F8A6
:104FE0001C1893400B43C4F81C38F0BD74850008AE
:104FF0009C60002000F1FF3CDCF1000040EB0C0065
:105000000001324B30B51B5801F00F04C9094FEABB
:1050100044114FEA425203EB01002CD0D0F8005962
:10502000002D0EDBD0F800190A4342F00062C0F8F0
:105030000029A40144F020041C611A699506FCD4DF
:1050400030BDD0F8005945F00065C0F80059D0F8DF
:1050500008596D06FBD5D0F800592A4342F080422A
:10506000C0F800291944D1F808299207FBD502227B
:10507000C1F80829DDE7D0F8005B002D00DA2CB973
:10508000D0F8003B1343C0F8003BD9E7D3F80448FD
:1050900044F40074C3F804485C692406FCD5D0F8D5
:1050A000004B224342F08042C0F8002B1944D1F853
:1050B000082B9207FBD50222C1F8082BD3F804284D
:1050C00042F48062C3F80428BAE700BF7485000880
:1050D000431E2DE9F74F584258410001204B214D06
:1050E00053F80080DFF880B008EB41130027D3F8B5
:1050F0001039C3F3C9494B1C08EB03330C464FEA84
:10510000411A00933E4605EB4115BBB2994503D8C1
:10511000304603B0BDE8F08F08EB0A016B8BD1F885
:10512000102992B2934228BF1346D1F818290BEAEE
:1051300082029342ECD868691E44B6B228B1009945
:105140001A4601F004F80137DFE72A690193214686
:10515000404600F090FD2A69019B1A442A61F2E75B
:10516000748500089C600020FCFF030000F1FF3CF8
:10517000F8B5DCF1000343EB0C0314461B012D4A88
:105180000E46D55884F00102002942D12A4F37F843
:105190001430402B194628BF40215B1A27F81430E1
:1051A000012306EB021205EB4212C3F3090341EAA5
:1051B000C343C2F81039D2F800391F46C7F3074776
:1051C000C3F3076C07F00C076CF07B0C042F6CF337
:1051D0001F6307D1D5F80878FF054CBF43F0805313
:1051E00043F00053012CAF6CC2F8003910D179B1F3
:1051F0003146FFF76DFF5EB1104B03EB46131B8B7F
:105200008342C1BFD5F83438B4401C43C5F8344894
:10521000F8BD0A4B04EB410103EB01135F891989C7
:10522000CB19013BB3FBF7F39BB2012B38BF012332
:10523000B7E700BF74850008946000209C600020E0
:105240002DE9F04F0F46411E4B424B411B01584A7E
:10525000DFF86091D658B36CB36C89B0C3F3832385
:105260004FEA0718013388F0100803935FFA88F3B8
:10527000029387F0010306EB432303F51063054611
:1052800001930024029AD6F818382244D340DA0752
:1052900033D5019B03EB4412012FD2F80880C2F8EA
:1052A00008805FFA84FA4FEA441B5FFA88F242D121
:1052B000D30708D55CBB404A528842B33A462146E0
:1052C0002846FFF753FF18F0800F16D0D6F8343871
:1052D000E340D80711D5B34451462846FFF7F8FEFE
:1052E000DBF81039C3F312033BB9D6F83438012286
:1052F000A24023EA0203C6F83438039A0134E3B229
:105300009A4209F12009BDD809B0BDE8F08F072104
:10531000B9F818208DF815106AF07F018DF8181073
:1053200007920121002205A88DF814508DF819204C
:10533000FEF78CFFC7E7110718D5D6F80039002B08
:1053400004DA002280212846FFF754FE06238DF858
:1053500015301A4B8DF8145093E8030008AB03E99D
:105360000300012105A8FEF771FFC6E7D307C4D5E6
:1053700028F4FF4323F05F039BB2002BBDD144B957
:105380000D4B1B882BB1224621462846FFF7EEFE27
:10539000B3E7B9F808300793072200238DF81450BB
:1053A0008DF815208DF818A08DF81930D9E700BFB9
:1053B000748500089C600020946000208C600020B0
:1053C000084B03EB001393F90430002B08DB012298
:1053D000590903F01F0302FA03F3034A42F821308C
:1053E000704700BF7485000800E100E00A4B03EB42
:1053F000001393F90430002B0DDB5A09012103F04F
:105400001F03994002F12003044A42F82310BFF31E
:105410004F8FBFF36F8F70477485000800E100E085
:10542000431E5842584100010F4B1B58D3F8042823
:1054300042F00102C3F8042808225A619A6942F036
:1054400008029A61094A4FF47A711268B2FBF1F2CC
:10545000013A06D2D3F8042822F00102C3F8042846
:10546000704700BFF4E700BF7485000844060020C1
:10547000431E584258410001044B1A58D2F80438D0
:1054800023F00203C2F80438704700BF7485000897
:10549000431E584258410001044B1A58D2F80438B0
:1054A00043F00203C2F80438704700BF7485000857
:1054B000421EF8B5534253411B01254AD458254B8F
:1054C00000260546012120461E605E6000F02CFB90
:1054D0003246014607462846A36C00F02DFB0646DF
:1054E00040B94FF0E023D3F8F03DDB0700D500BE14
:1054F0003046F8BDD4F800383FB3A26C02F0C002C9
:10550000802A23F0030301D143F4804343F00403D2
:10551000C4F800382846FFF7BBFFE36823F0C04318
:1055200043F08043E360236823F0D00343F0C003DB
:105530002360A269084B1343A361A36843F081036E
:10554000A3602846FFF794FFD2E743F00303DDE7AB
:10555000748500089460002004300080431E584287
:105560005841084A084BD17100011B5831B108223B
:105570005A619A6942F008029A6170479A6922F06A
:105580000802F9E7946000207485000870B58A88E5
:105590000C46C2F30A0289780646FFF76BFC054603
:1055A00040B94FF0E023D3F8F03DDB0700D500BE53
:1055B000284670BD21463046FFF7D0FCF8E70000D2
:1055C000411E4A424A41F8B51201224B9C5803EB56
:1055D0000013054600201F7AFEF75EFF1E4B1F4A90
:1055E000002098714FF00113C4F81C380121CBB290
:1055F0009F421AD904EB41132032D3F80069002EE0
:10560000BEBFD3F8006946F09046C3F80069D3F8EE
:10561000006B5083002EBEBFD3F8006B46F090465F
:10562000C3F8006B01315081E1E74FF484632361DB
:1056300023699B06FCD410232361266916F010060B
:10564000FBD12846FFF76AFC3046BDE8F840FEF77C
:1056500031BF00BF74850008946000209C6000206A
:105660002DE9F0478046002092461F4601F00F09C1
:10567000CC09FEF711FF104B04EB49052A0103EB9F
:1056800005156E8996B143F802A000236B602B7B51
:105690002F816B73B9F1000F02D1084B23F81470FE
:1056A000224649464046FFF761FD01260020FEF7ED
:1056B00001FF3046BDE8F0879C6000209460002028
:1056C000421E534253411B01074AD258D2F80038B8
:1056D00023F4FE6343EA0113C2F8003800231A469C
:1056E0008021FFF7BDBF00BF74850008421E38B59A
:1056F000534253411B01054A0C46D5580122FFF77E
:1057000079FC210708BFAB6C38BD00BF7485000869
:10571000431E58425841CB0983F0010301F00F01A9
:1057200001EB03110001084B1B5803EB4113D3F8A5
:10573000002922F40012C3F80029D3F8002942F00E
:105740008052C3F80029704774850008411E4B42FF
:105750004B411B01B84A2DE9F04FD458A369666943
:105760001E400546F00487B073D54FF48053636143
:105770000120FEF791FEA76CB0484FF48072002123
:1057800000F052FDAE4AC7F3832700230137D380D0
:1057900004EB43110133D1F8002B42F00062C1F851
:1057A000002BDAB2BA42F3D3002304EB43120133E5
:1057B000D2F800190029BEBFD2F8001941F090417B
:1057C000C2F80019DAB29742EFD84FF00113C4F8CB
:1057D0001C380923C4F81438C4F810384FF4846313
:1057E000236123699A06FCD410232361276917F0EB
:1057F0001007FBD12846FFF791FBD4F8003867F378
:105800000A13C4F80038D4F8003923F00303C4F8AD
:105810000039D4F8003B23F00303C4F8003BD4F86C
:105820000039C4F80039D4F8003BC4F8003B834B7E
:1058300040225A835A81A36CD4F8103B43F0C043F2
:10584000C4F8103BA36943F4E013A3610120FEF701
:1058500031FEB3041ED54FF4005363614FF400636F
:105860006361A36943F40063A361D4F8082812F0CC
:10587000060FC2F3410300F0CB809F1E7B427B41A9
:10588000012103A88DF80C508DF80D108DF8103003
:10589000FEF7DCFC30050FD54FF400636361A369AC
:1058A00023F40063A3610121042303A88DF80C50A5
:1058B0008DF80D30FEF7CAFC002E0FDA4FF00043D2
:1058C0006361A36943F40063A3610121052303A875
:1058D0008DF80C508DF80D30FEF7B8FC71070CD523
:1058E00067687A0708D50223012103A88DF80C50B8
:1058F0008DF80D30FEF7AAFC676033071AD5082330
:105900006361A3694E4A43F40063A361D4F8083885
:10591000D279C3F30D231AB9A26922F00802A26159
:105920000322012103A88DF80C508DF80D2004935B
:10593000FEF78CFCF70619D5A369DFF800B123F058
:105940001003A36104F5805A276AC7F34342042A6F
:1059500007F00F0966D0062A5CD0022A78D0626967
:10596000D006F1D4A36943F01003A361310303D53A
:1059700000212846FFF764FC720303D50121284665
:10598000FFF75EFCF30240D54FF480136361D4F857
:105990000838A76C294EDFF8ACA0C7F38327C3F300
:1059A000002901374FF0000848F2040B04EB4811BE
:1059B000D1F800390AEA13425A451ED1C3F3004216
:1059C0004A451AD1727F002A72D0013AB6F818C03F
:1059D0007277728B0CEB02000138B0FBF2F01A4ABE
:1059E00002EAC04242EA0C02C1F81029B9F1000FE4
:1059F0005BD043F08053C1F8003908F101085FFA29
:105A000088F3BB4206F12006D0D307B0BDE8F08F83
:105A1000022335E70D4BDAF800201A60DAF800208F
:105A20005A609CE704EB4919D9F8102B42F0C042A8
:105A3000C9F8102B93E700BF748500089C60002014
:105A4000946000200C80FFFF0000F81F8C60002095
:105A5000C7F30A174FEA491847B10BEB0802506821
:105A60003A46B8B104F5805100F0AAFB0BEB0802EE
:105A70005189B9427FF673AFA0441189D8F8100B51
:105A8000091A1181B9F1000F7FF469AF154AA2F824
:105A9000009064E75BF80810204600F0CDF85BF852
:105AA00008203A444BF80820E0E743F00053A2E70F
:105AB00068F07F01C9B22846CDE90012FFF79AFAD3
:105AC0000099019A8DF810100723012103A88DF881
:105AD0000C508DF80D3005928DF81110FEF7B6FBC5
